{
  "_format": "hh3-artifact-1",
  "contractName": "AccessControlledVault",
  "sourceName": "contracts/Day1_AccessControl/AccessControlledVault.sol",
  "abi": [
    {
      "inputs": [],
      "stateMutability": "nonpayable",
      "type": "constructor"
    },
    {
      "inputs": [],
      "name": "NotAnOwner",
      "type": "error"
    },
    {
      "anonymous": false,
      "inputs": [
        {
          "indexed": false,
          "internalType": "uint256",
          "name": "newRate",
          "type": "uint256"
        }
      ],
      "name": "RateChanged",
      "type": "event"
    },
    {
      "inputs": [],
      "name": "conversionRate",
      "outputs": [
        {
          "internalType": "uint256",
          "name": "",
          "type": "uint256"
        }
      ],
      "stateMutability": "view",
      "type": "function"
    },
    {
      "inputs": [],
      "name": "owner",
      "outputs": [
        {
          "internalType": "address",
          "name": "",
          "type": "address"
        }
      ],
      "stateMutability": "view",
      "type": "function"
    },
    {
      "inputs": [
        {
          "internalType": "uint256",
          "name": "_newRate",
          "type": "uint256"
        }
      ],
      "name": "setRate",
      "outputs": [],
      "stateMutability": "nonpayable",
      "type": "function"
    }
  ],
  "bytecode": "0x6080604052348015600e575f5ffd5b505f80546001600160a01b031916331790556101508061002d5f395ff3fe608060405234801561000f575f5ffd5b506004361061003f575f3560e01c806334fcf437146100435780637ffdf53e146100585780638da5cb5b14610074575b5f5ffd5b610056610051366004610103565b61009e565b005b61006160015481565b6040519081526020015b60405180910390f35b5f54610086906001600160a01b031681565b6040516001600160a01b03909116815260200161006b565b5f546001600160a01b031633146100c857604051631dd523ff60e31b815260040160405180910390fd5b60018190556040518181527f595a30f13a69b616c4d568e2a2b7875fdfe86e4300a049953c76ee278f8f3f109060200160405180910390a150565b5f60208284031215610113575f5ffd5b503591905056fea26469706673582212206e3843bc7b6ff832bf55ff13262b0ed6162a763feb0bdca947490ae13b81495164736f6c634300081c0033",
  "linkReferences": {},
  "deployedLinkReferences": {},
  "immutableReferences": {},
  "inputSourceName": "project/contracts/Day1_AccessControl/AccessControlledVault.sol",
  "buildInfoId": "solc-0_8_28-5739e795621b9757c9167df5a1118659ab9f3318"
}