{
  "_format": "hh3-artifact-1",
  "contractName": "MyToken",
  "sourceName": "contracts/Day4_ERC-20/MyToken.sol",
  "abi": [
    {
      "inputs": [],
      "stateMutability": "nonpayable",
      "type": "constructor"
    },
    {
      "inputs": [
        {
          "internalType": "address",
          "name": "spender",
          "type": "address"
        },
        {
          "internalType": "uint256",
          "name": "allowance",
          "type": "uint256"
        },
        {
          "internalType": "uint256",
          "name": "needed",
          "type": "uint256"
        }
      ],
      "name": "ERC20InsufficientAllowance",
      "type": "error"
    },
    {
      "inputs": [
        {
          "internalType": "address",
          "name": "sender",
          "type": "address"
        },
        {
          "internalType": "uint256",
          "name": "balance",
          "type": "uint256"
        },
        {
          "internalType": "uint256",
          "name": "needed",
          "type": "uint256"
        }
      ],
      "name": "ERC20InsufficientBalance",
      "type": "error"
    },
    {
      "inputs": [
        {
          "internalType": "address",
          "name": "approver",
          "type": "address"
        }
      ],
      "name": "ERC20InvalidApprover",
      "type": "error"
    },
    {
      "inputs": [
        {
          "internalType": "address",
          "name": "receiver",
          "type": "address"
        }
      ],
      "name": "ERC20InvalidReceiver",
      "type": "error"
    },
    {
      "inputs": [
        {
          "internalType": "address",
          "name": "sender",
          "type": "address"
        }
      ],
      "name": "ERC20InvalidSender",
      "type": "error"
    },
    {
      "inputs": [
        {
          "internalType": "address",
          "name": "spender",
          "type": "address"
        }
      ],
      "name": "ERC20InvalidSpender",
      "type": "error"
    },
    {
      "inputs": [],
      "name": "HardcapReached",
      "type": "error"
    },
    {
      "inputs": [],
      "name": "InsufficientETH",
      "type": "error"
    },
    {
      "anonymous": false,
      "inputs": [
        {
          "indexed": true,
          "internalType": "address",
          "name": "owner",
          "type": "address"
        },
        {
          "indexed": true,
          "internalType": "address",
          "name": "spender",
          "type": "address"
        },
        {
          "indexed": false,
          "internalType": "uint256",
          "name": "value",
          "type": "uint256"
        }
      ],
      "name": "Approval",
      "type": "event"
    },
    {
      "anonymous": false,
      "inputs": [
        {
          "indexed": true,
          "internalType": "address",
          "name": "buyer",
          "type": "address"
        },
        {
          "indexed": false,
          "internalType": "uint256",
          "name": "ethAmount",
          "type": "uint256"
        },
        {
          "indexed": false,
          "internalType": "uint256",
          "name": "tokenAmount",
          "type": "uint256"
        }
      ],
      "name": "TokensPurchased",
      "type": "event"
    },
    {
      "anonymous": false,
      "inputs": [
        {
          "indexed": true,
          "internalType": "address",
          "name": "from",
          "type": "address"
        },
        {
          "indexed": true,
          "internalType": "address",
          "name": "to",
          "type": "address"
        },
        {
          "indexed": false,
          "internalType": "uint256",
          "name": "value",
          "type": "uint256"
        }
      ],
      "name": "Transfer",
      "type": "event"
    },
    {
      "inputs": [],
      "name": "HARDCAP",
      "outputs": [
        {
          "internalType": "uint256",
          "name": "",
          "type": "uint256"
        }
      ],
      "stateMutability": "view",
      "type": "function"
    },
    {
      "inputs": [],
      "name": "RATE",
      "outputs": [
        {
          "internalType": "uint256",
          "name": "",
          "type": "uint256"
        }
      ],
      "stateMutability": "view",
      "type": "function"
    },
    {
      "inputs": [
        {
          "internalType": "address",
          "name": "owner",
          "type": "address"
        },
        {
          "internalType": "address",
          "name": "spender",
          "type": "address"
        }
      ],
      "name": "allowance",
      "outputs": [
        {
          "internalType": "uint256",
          "name": "",
          "type": "uint256"
        }
      ],
      "stateMutability": "view",
      "type": "function"
    },
    {
      "inputs": [
        {
          "internalType": "address",
          "name": "spender",
          "type": "address"
        },
        {
          "internalType": "uint256",
          "name": "value",
          "type": "uint256"
        }
      ],
      "name": "approve",
      "outputs": [
        {
          "internalType": "bool",
          "name": "",
          "type": "bool"
        }
      ],
      "stateMutability": "nonpayable",
      "type": "function"
    },
    {
      "inputs": [
        {
          "internalType": "address",
          "name": "account",
          "type": "address"
        }
      ],
      "name": "balanceOf",
      "outputs": [
        {
          "internalType": "uint256",
          "name": "",
          "type": "uint256"
        }
      ],
      "stateMutability": "view",
      "type": "function"
    },
    {
      "inputs": [],
      "name": "buyTokens",
      "outputs": [],
      "stateMutability": "payable",
      "type": "function"
    },
    {
      "inputs": [],
      "name": "decimals",
      "outputs": [
        {
          "internalType": "uint8",
          "name": "",
          "type": "uint8"
        }
      ],
      "stateMutability": "view",
      "type": "function"
    },
    {
      "inputs": [],
      "name": "name",
      "outputs": [
        {
          "internalType": "string",
          "name": "",
          "type": "string"
        }
      ],
      "stateMutability": "view",
      "type": "function"
    },
    {
      "inputs": [],
      "name": "owner",
      "outputs": [
        {
          "internalType": "address",
          "name": "",
          "type": "address"
        }
      ],
      "stateMutability": "view",
      "type": "function"
    },
    {
      "inputs": [],
      "name": "symbol",
      "outputs": [
        {
          "internalType": "string",
          "name": "",
          "type": "string"
        }
      ],
      "stateMutability": "view",
      "type": "function"
    },
    {
      "inputs": [],
      "name": "totalRaised",
      "outputs": [
        {
          "internalType": "uint256",
          "name": "",
          "type": "uint256"
        }
      ],
      "stateMutability": "view",
      "type": "function"
    },
    {
      "inputs": [],
      "name": "totalSupply",
      "outputs": [
        {
          "internalType": "uint256",
          "name": "",
          "type": "uint256"
        }
      ],
      "stateMutability": "view",
      "type": "function"
    },
    {
      "inputs": [
        {
          "internalType": "address",
          "name": "to",
          "type": "address"
        },
        {
          "internalType": "uint256",
          "name": "value",
          "type": "uint256"
        }
      ],
      "name": "transfer",
      "outputs": [
        {
          "internalType": "bool",
          "name": "",
          "type": "bool"
        }
      ],
      "stateMutability": "nonpayable",
      "type": "function"
    },
    {
      "inputs": [
        {
          "internalType": "address",
          "name": "from",
          "type": "address"
        },
        {
          "internalType": "address",
          "name": "to",
          "type": "address"
        },
        {
          "internalType": "uint256",
          "name": "value",
          "type": "uint256"
        }
      ],
      "name": "transferFrom",
      "outputs": [
        {
          "internalType": "bool",
          "name": "",
          "type": "bool"
        }
      ],
      "stateMutability": "nonpayable",
      "type": "function"
    },
    {
      "inputs": [],
      "name": "withdrawFunds",
      "outputs": [],
      "stateMutability": "nonpayable",
      "type": "function"
    }
  ],
  "bytecode": "0x60a060405234801561000f575f5ffd5b506040518060400160405280601181526020017026bca2b73a32b9383934b9b2aa37b5b2b760791b8152506040518060400160405280600381526020016213515560ea1b8152508160039081610065919061028f565b506004610072828261028f565b505033608081905261008f9150690a968163f0a57b400000610094565b61036e565b6001600160a01b0382166100c25760405163ec442f0560e01b81525f60048201526024015b60405180910390fd5b6100cd5f83836100d1565b5050565b6001600160a01b0383166100fb578060025f8282546100f09190610349565b9091555061016b9050565b6001600160a01b0383165f908152602081905260409020548181101561014d5760405163391434e360e21b81526001600160a01b038516600482015260248101829052604481018390526064016100b9565b6001600160a01b0384165f9081526020819052604090209082900390555b6001600160a01b038216610187576002805482900390556101a5565b6001600160a01b0382165f9081526020819052604090208054820190555b816001600160a01b0316836001600160a01b03167fddf252ad1be2c89b69c2b068fc378daa952ba7f163c4a11628f55a4df523b3ef836040516101ea91815260200190565b60405180910390a3505050565b634e487b7160e01b5f52604160045260245ffd5b600181811c9082168061021f57607f821691505b60208210810361023d57634e487b7160e01b5f52602260045260245ffd5b50919050565b601f82111561028a57805f5260205f20601f840160051c810160208510156102685750805b601f840160051c820191505b81811015610287575f8155600101610274565b50505b505050565b81516001600160401b038111156102a8576102a86101f7565b6102bc816102b6845461020b565b84610243565b6020601f8211600181146102ee575f83156102d75750848201515b5f19600385901b1c1916600184901b178455610287565b5f84815260208120601f198516915b8281101561031d57878501518255602094850194600190920191016102fd565b508482101561033a57868401515f19600387901b60f8161c191681555b50505050600190811b01905550565b8082018082111561036857634e487b7160e01b5f52601160045260245ffd5b92915050565b608051610a706103945f395f8181610226015281816103cb015261040c0152610a705ff3fe6080604052600436106100e4575f3560e01c8063664e970411610087578063a9059cbb11610057578063a9059cbb14610274578063c5c4744c14610293578063d0febe4c146102a8578063dd62ed3e146102b0575f5ffd5b8063664e9704146101cc57806370a08231146101e15780638da5cb5b1461021557806395d89b4114610260575f5ffd5b806323b872dd116100c257806323b872dd1461015f57806324600fc31461017e578063313ce567146101945780633bd74880146101af575f5ffd5b806306fdde03146100e8578063095ea7b31461011257806318160ddd14610141575b5f5ffd5b3480156100f3575f5ffd5b506100fc6102f4565b60405161010991906108c1565b60405180910390f35b34801561011d575f5ffd5b5061013161012c366004610911565b610384565b6040519015158152602001610109565b34801561014c575f5ffd5b506002545b604051908152602001610109565b34801561016a575f5ffd5b50610131610179366004610939565b61039d565b348015610189575f5ffd5b506101926103c0565b005b34801561019f575f5ffd5b5060405160128152602001610109565b3480156101ba575f5ffd5b5061015169152d02c7e14af680000081565b3480156101d7575f5ffd5b506101516103e881565b3480156101ec575f5ffd5b506101516101fb366004610973565b6001600160a01b03165f9081526020819052604090205490565b348015610220575f5ffd5b506102487f000000000000000000000000000000000000000000000000000000000000000081565b6040516001600160a01b039091168152602001610109565b34801561026b575f5ffd5b506100fc6104c4565b34801561027f575f5ffd5b5061013161028e366004610911565b6104d3565b34801561029e575f5ffd5b5061015160055481565b6101926104e0565b3480156102bb575f5ffd5b506101516102ca366004610993565b6001600160a01b039182165f90815260016020908152604080832093909416825291909152205490565b606060038054610303906109c4565b80601f016020809104026020016040519081016040528092919081815260200182805461032f906109c4565b801561037a5780601f106103515761010080835404028352916020019161037a565b820191905f5260205f20905b81548152906001019060200180831161035d57829003601f168201915b5050505050905090565b5f336103918185856105a6565b60019150505b92915050565b5f336103aa8582856105b8565b6103b5858585610634565b506001949350505050565b336001600160a01b037f0000000000000000000000000000000000000000000000000000000000000000161461040957604051631a84bc4160e21b815260040160405180910390fd5b5f7f00000000000000000000000000000000000000000000000000000000000000006001600160a01b0316476040515f6040518083038185875af1925050503d805f8114610472576040519150601f19603f3d011682016040523d82523d5f602084013e610477565b606091505b50509050806104c15760405162461bcd60e51b815260206004820152601160248201527015da5d1a191c985dd85b0819985a5b1959607a1b60448201526064015b60405180910390fd5b50565b606060048054610303906109c4565b5f33610391818585610634565b345f0361050057604051631a84bc4160e21b815260040160405180910390fd5b5f61050d6103e834610a10565b905069152d02c7e14af6800000816005546105289190610a27565b111561054757604051635be9015960e01b815260040160405180910390fd5b8060055f8282546105589190610a27565b9091555061056890503382610691565b604080513481526020810183905233917f8fafebcaf9d154343dad25669bfa277f4fbacd7ac6b0c4fed522580e040a0f33910160405180910390a250565b6105b383838360016106c9565b505050565b6001600160a01b038381165f908152600160209081526040808320938616835292905220545f1981101561062e578181101561062057604051637dc7a0d960e11b81526001600160a01b038416600482015260248101829052604481018390526064016104b8565b61062e84848484035f6106c9565b50505050565b6001600160a01b03831661065d57604051634b637e8f60e11b81525f60048201526024016104b8565b6001600160a01b0382166106865760405163ec442f0560e01b81525f60048201526024016104b8565b6105b383838361079b565b6001600160a01b0382166106ba5760405163ec442f0560e01b81525f60048201526024016104b8565b6106c55f838361079b565b5050565b6001600160a01b0384166106f25760405163e602df0560e01b81525f60048201526024016104b8565b6001600160a01b03831661071b57604051634a1406b160e11b81525f60048201526024016104b8565b6001600160a01b038085165f908152600160209081526040808320938716835292905220829055801561062e57826001600160a01b0316846001600160a01b03167f8c5be1e5ebec7d5bd14f71427d1e84f3dd0314c0f7b2291e5b200ac8c7c3b9258460405161078d91815260200190565b60405180910390a350505050565b6001600160a01b0383166107c5578060025f8282546107ba9190610a27565b909155506108359050565b6001600160a01b0383165f90815260208190526040902054818110156108175760405163391434e360e21b81526001600160a01b038516600482015260248101829052604481018390526064016104b8565b6001600160a01b0384165f9081526020819052604090209082900390555b6001600160a01b0382166108515760028054829003905561086f565b6001600160a01b0382165f9081526020819052604090208054820190555b816001600160a01b0316836001600160a01b03167fddf252ad1be2c89b69c2b068fc378daa952ba7f163c4a11628f55a4df523b3ef836040516108b491815260200190565b60405180910390a3505050565b602081525f82518060208401528060208501604085015e5f604082850101526040601f19601f83011684010191505092915050565b80356001600160a01b038116811461090c575f5ffd5b919050565b5f5f60408385031215610922575f5ffd5b61092b836108f6565b946020939093013593505050565b5f5f5f6060848603121561094b575f5ffd5b610954846108f6565b9250610962602085016108f6565b929592945050506040919091013590565b5f60208284031215610983575f5ffd5b61098c826108f6565b9392505050565b5f5f604083850312156109a4575f5ffd5b6109ad836108f6565b91506109bb602084016108f6565b90509250929050565b600181811c908216806109d857607f821691505b6020821081036109f657634e487b7160e01b5f52602260045260245ffd5b50919050565b634e487b7160e01b5f52601160045260245ffd5b8082028115828204841417610397576103976109fc565b80820180821115610397576103976109fc56fea26469706673582212201db1b98255f5b88b39a860f98c34b8081ca78578c3afcd38de7f637c10e89b7364736f6c634300081c0033",
  "linkReferences": {},
  "deployedLinkReferences": {},
  "immutableReferences": {
    "796": [
      {
        "length": 32,
        "start": 550
      },
      {
        "length": 32,
        "start": 971
      },
      {
        "length": 32,
        "start": 1036
      }
    ]
  },
  "inputSourceName": "project/contracts/Day4_ERC-20/MyToken.sol",
  "buildInfoId": "solc-0_8_28-77417581a2314e3978caf68a5d65e54d5edfa9a3"
}