{
  "_format": "hh3-artifact-1",
  "contractName": "SimpleEscrow",
  "sourceName": "contracts/Day2_Escrow/SimpleEscrow.sol",
  "abi": [
    {
      "inputs": [
        {
          "internalType": "address",
          "name": "_seller",
          "type": "address"
        },
        {
          "internalType": "address",
          "name": "_arbiter",
          "type": "address"
        },
        {
          "internalType": "uint256",
          "name": "_amount",
          "type": "uint256"
        }
      ],
      "stateMutability": "nonpayable",
      "type": "constructor"
    },
    {
      "inputs": [],
      "name": "InvalidState",
      "type": "error"
    },
    {
      "inputs": [],
      "name": "NothingToWithdraw",
      "type": "error"
    },
    {
      "inputs": [],
      "name": "OnlyArbiter",
      "type": "error"
    },
    {
      "inputs": [],
      "name": "TransferFailed",
      "type": "error"
    },
    {
      "anonymous": false,
      "inputs": [
        {
          "indexed": true,
          "internalType": "address",
          "name": "buyer",
          "type": "address"
        },
        {
          "indexed": false,
          "internalType": "uint256",
          "name": "amount",
          "type": "uint256"
        }
      ],
      "name": "Deposited",
      "type": "event"
    },
    {
      "anonymous": false,
      "inputs": [],
      "name": "RefundedToBuyer",
      "type": "event"
    },
    {
      "anonymous": false,
      "inputs": [],
      "name": "Released",
      "type": "event"
    },
    {
      "anonymous": false,
      "inputs": [
        {
          "indexed": true,
          "internalType": "address",
          "name": "payee",
          "type": "address"
        },
        {
          "indexed": false,
          "internalType": "uint256",
          "name": "amount",
          "type": "uint256"
        }
      ],
      "name": "Withdrawn",
      "type": "event"
    },
    {
      "inputs": [],
      "name": "amount",
      "outputs": [
        {
          "internalType": "uint256",
          "name": "",
          "type": "uint256"
        }
      ],
      "stateMutability": "view",
      "type": "function"
    },
    {
      "inputs": [],
      "name": "arbiter",
      "outputs": [
        {
          "internalType": "address",
          "name": "",
          "type": "address"
        }
      ],
      "stateMutability": "view",
      "type": "function"
    },
    {
      "inputs": [
        {
          "internalType": "address",
          "name": "",
          "type": "address"
        }
      ],
      "name": "balanceOf",
      "outputs": [
        {
          "internalType": "uint256",
          "name": "",
          "type": "uint256"
        }
      ],
      "stateMutability": "view",
      "type": "function"
    },
    {
      "inputs": [],
      "name": "buyer",
      "outputs": [
        {
          "internalType": "address",
          "name": "",
          "type": "address"
        }
      ],
      "stateMutability": "view",
      "type": "function"
    },
    {
      "inputs": [],
      "name": "currentState",
      "outputs": [
        {
          "internalType": "enum SimpleEscrow.State",
          "name": "",
          "type": "uint8"
        }
      ],
      "stateMutability": "view",
      "type": "function"
    },
    {
      "inputs": [],
      "name": "deposit",
      "outputs": [],
      "stateMutability": "payable",
      "type": "function"
    },
    {
      "inputs": [],
      "name": "refund",
      "outputs": [],
      "stateMutability": "nonpayable",
      "type": "function"
    },
    {
      "inputs": [],
      "name": "release",
      "outputs": [],
      "stateMutability": "nonpayable",
      "type": "function"
    },
    {
      "inputs": [],
      "name": "seller",
      "outputs": [
        {
          "internalType": "address",
          "name": "",
          "type": "address"
        }
      ],
      "stateMutability": "view",
      "type": "function"
    },
    {
      "inputs": [],
      "name": "withdraw",
      "outputs": [],
      "stateMutability": "nonpayable",
      "type": "function"
    }
  ],
  "bytecode": "0x610100604052348015610010575f5ffd5b5060405161084438038061084483398101604081905261002f91610072565b336080526001600160a01b0392831660a052911660c05260e0525f805460ff191690556100ab565b80516001600160a01b038116811461006d575f5ffd5b919050565b5f5f5f60608486031215610084575f5ffd5b61008d84610057565b925061009b60208501610057565b9150604084015190509250925092565b60805160a05160c05160e05161072861011c5f395f81816101c3015281816103c2015281816104e101526105bc01525f81816101fe01528181610309015261042801525f818160a401526104aa01525f818161017c0152818161038b01528181610547015261061601526107285ff3fe60806040526004361061008f575f3560e01c80637150d8ae116100575780637150d8ae1461016b57806386d1a69f1461019e578063aa8c217c146101b2578063d0e30db0146101e5578063fe25e00a146101ed575f5ffd5b806308551a53146100935780630c3f6acf146100e35780633ccfd60b14610108578063590e1ae31461011e57806370a0823114610132575b5f5ffd5b34801561009e575f5ffd5b506100c67f000000000000000000000000000000000000000000000000000000000000000081565b6040516001600160a01b0390911681526020015b60405180910390f35b3480156100ee575f5ffd5b505f546100fb9060ff1681565b6040516100da919061067a565b348015610113575f5ffd5b5061011c610220565b005b348015610129575f5ffd5b5061011c6102fe565b34801561013d575f5ffd5b5061015d61014c3660046106a0565b60016020525f908152604090205481565b6040519081526020016100da565b348015610176575f5ffd5b506100c67f000000000000000000000000000000000000000000000000000000000000000081565b3480156101a9575f5ffd5b5061011c61041d565b3480156101bd575f5ffd5b5061015d7f000000000000000000000000000000000000000000000000000000000000000081565b61011c61053c565b3480156101f8575f5ffd5b506100c67f000000000000000000000000000000000000000000000000000000000000000081565b335f908152600160205260408120549081900361025057604051630686827b60e51b815260040160405180910390fd5b335f818152600160205260408082208290555190919083908381818185875af1925050503d805f811461029e576040519150601f19603f3d011682016040523d82523d5f602084013e6102a3565b606091505b50509050806102c5576040516312171d8360e31b815260040160405180910390fd5b60405182815233907f7084f5476618d8e60b11ef0d7d3f06914655adb8793e28ff7f018d4c76d505d59060200160405180910390a25050565b336001600160a01b037f00000000000000000000000000000000000000000000000000000000000000001614610347576040516372cc71e760e11b815260040160405180910390fd5b60015f5460ff16600381111561035f5761035f610666565b1461037d5760405163baf3f0f760e01b815260040160405180910390fd5b5f805460ff191660031781557f00000000000000000000000000000000000000000000000000000000000000006001600160a01b0316815260016020526040812080547f000000000000000000000000000000000000000000000000000000000000000092906103ee9084906106cd565b90915550506040517ff6f6bf521829876ae7dff465962944012d2a40af000fb2f9068dbf97b89237a3905f90a1565b336001600160a01b037f00000000000000000000000000000000000000000000000000000000000000001614610466576040516372cc71e760e11b815260040160405180910390fd5b60015f5460ff16600381111561047e5761047e610666565b1461049c5760405163baf3f0f760e01b815260040160405180910390fd5b5f805460ff191660021781557f00000000000000000000000000000000000000000000000000000000000000006001600160a01b0316815260016020526040812080547f0000000000000000000000000000000000000000000000000000000000000000929061050d9084906106cd565b90915550506040517f20d29efe076941f73e5574acb023c424d63cd6d3d12eb5ac3108a5eaf177daed905f90a1565b336001600160a01b037f000000000000000000000000000000000000000000000000000000000000000016146105855760405163baf3f0f760e01b815260040160405180910390fd5b5f5f5460ff16600381111561059c5761059c610666565b146105ba5760405163baf3f0f760e01b815260040160405180910390fd5b7f000000000000000000000000000000000000000000000000000000000000000034146105fa5760405163baf3f0f760e01b815260040160405180910390fd5b5f805460ff191660011790556040513481526001600160a01b037f000000000000000000000000000000000000000000000000000000000000000016907f2da466a7b24304f47e87fa2e1e5a81b9831ce54fec19055ce277ca2f39ba42c49060200160405180910390a2565b634e487b7160e01b5f52602160045260245ffd5b602081016004831061069a57634e487b7160e01b5f52602160045260245ffd5b91905290565b5f602082840312156106b0575f5ffd5b81356001600160a01b03811681146106c6575f5ffd5b9392505050565b808201808211156106ec57634e487b7160e01b5f52601160045260245ffd5b9291505056fea264697066735822122084f0e7b8ff290ee3b4d9947acf7b1b2dbc16a5f15d26220023de98d5f629192764736f6c634300081c0033",
  "linkReferences": {},
  "deployedLinkReferences": {},
  "immutableReferences": {
    "16": [
      {
        "length": 32,
        "start": 380
      },
      {
        "length": 32,
        "start": 907
      },
      {
        "length": 32,
        "start": 1351
      },
      {
        "length": 32,
        "start": 1558
      }
    ],
    "18": [
      {
        "length": 32,
        "start": 164
      },
      {
        "length": 32,
        "start": 1194
      }
    ],
    "20": [
      {
        "length": 32,
        "start": 510
      },
      {
        "length": 32,
        "start": 777
      },
      {
        "length": 32,
        "start": 1064
      }
    ],
    "22": [
      {
        "length": 32,
        "start": 451
      },
      {
        "length": 32,
        "start": 962
      },
      {
        "length": 32,
        "start": 1249
      },
      {
        "length": 32,
        "start": 1468
      }
    ]
  },
  "inputSourceName": "project/contracts/Day2_Escrow/SimpleEscrow.sol",
  "buildInfoId": "solc-0_8_28-04b5797736011ea8ca08f991cb2551aaf421c24f"
}