{
  "_format": "hh3-artifact-1",
  "contractName": "SimpleVotingDAO",
  "sourceName": "contracts/Day3_SimpleVotingDAO/SimpleVotingDAO.sol",
  "abi": [
    {
      "inputs": [],
      "name": "AlreadyVoted",
      "type": "error"
    },
    {
      "inputs": [],
      "name": "InvalidProposal",
      "type": "error"
    },
    {
      "inputs": [],
      "name": "VotingEnding",
      "type": "error"
    },
    {
      "anonymous": false,
      "inputs": [
        {
          "indexed": true,
          "internalType": "uint256",
          "name": "proposalId",
          "type": "uint256"
        },
        {
          "indexed": false,
          "internalType": "string",
          "name": "description",
          "type": "string"
        },
        {
          "indexed": false,
          "internalType": "uint256",
          "name": "deadline",
          "type": "uint256"
        }
      ],
      "name": "ProposalCreated",
      "type": "event"
    },
    {
      "anonymous": false,
      "inputs": [
        {
          "indexed": true,
          "internalType": "uint256",
          "name": "proposalId",
          "type": "uint256"
        },
        {
          "indexed": true,
          "internalType": "address",
          "name": "voter",
          "type": "address"
        },
        {
          "indexed": false,
          "internalType": "bool",
          "name": "support",
          "type": "bool"
        },
        {
          "indexed": false,
          "internalType": "uint256",
          "name": "weight",
          "type": "uint256"
        }
      ],
      "name": "Voted",
      "type": "event"
    },
    {
      "inputs": [
        {
          "internalType": "string",
          "name": "_description",
          "type": "string"
        },
        {
          "internalType": "uint256",
          "name": "_durationInSeconds",
          "type": "uint256"
        }
      ],
      "name": "createProposal",
      "outputs": [],
      "stateMutability": "nonpayable",
      "type": "function"
    },
    {
      "inputs": [
        {
          "internalType": "uint256",
          "name": "",
          "type": "uint256"
        },
        {
          "internalType": "address",
          "name": "",
          "type": "address"
        }
      ],
      "name": "hasVoted",
      "outputs": [
        {
          "internalType": "bool",
          "name": "",
          "type": "bool"
        }
      ],
      "stateMutability": "view",
      "type": "function"
    },
    {
      "inputs": [
        {
          "internalType": "uint256",
          "name": "",
          "type": "uint256"
        }
      ],
      "name": "proposals",
      "outputs": [
        {
          "internalType": "string",
          "name": "description",
          "type": "string"
        },
        {
          "internalType": "uint256",
          "name": "votesFor",
          "type": "uint256"
        },
        {
          "internalType": "uint256",
          "name": "votesAgainst",
          "type": "uint256"
        },
        {
          "internalType": "uint256",
          "name": "deadline",
          "type": "uint256"
        },
        {
          "internalType": "bool",
          "name": "executed",
          "type": "bool"
        }
      ],
      "stateMutability": "view",
      "type": "function"
    },
    {
      "inputs": [
        {
          "internalType": "uint256",
          "name": "_proposalId",
          "type": "uint256"
        },
        {
          "internalType": "bool",
          "name": "_support",
          "type": "bool"
        }
      ],
      "name": "vote",
      "outputs": [],
      "stateMutability": "nonpayable",
      "type": "function"
    }
  ],
  "bytecode": "0x6080604052348015600e575f5ffd5b5061075b8061001c5f395ff3fe608060405234801561000f575f5ffd5b506004361061004a575f3560e01c8063013cf08b1461004e57806335facf781461007b5780634385963214610090578063c9d27afe146100cd575b5f5ffd5b61006161005c36600461040b565b6100e0565b604051610072959493929190610422565b60405180910390f35b61008e610089366004610475565b6101aa565b005b6100bd61009e3660046104e7565b600160209081525f928352604080842090915290825290205460ff1681565b6040519015158152602001610072565b61008e6100db366004610520565b6102c3565b5f81815481106100ee575f80fd5b905f5260205f2090600502015f91509050805f01805461010d90610547565b80601f016020809104026020016040519081016040528092919081815260200182805461013990610547565b80156101845780601f1061015b57610100808354040283529160200191610184565b820191905f5260205f20905b81548152906001019060200180831161016757829003601f168201915b505050506001830154600284015460038501546004909501549394919390925060ff1685565b5f6101b58242610593565b90505f6040518060a0016040528086868080601f0160208091040260200160405190810160405280939291908181526020018383808284375f9201829052509385525050506020808301829052604083018290526060830186905260809092018190528354600181018555938152208151919260050201908190610239908261060c565b50602082015160018281019190915560408301516002830155606083015160038301556080909201516004909101805460ff19169115159190911790555f5461028291906106c7565b7ff5dc0da9afa6d080780a49fd8c680f03d2ddf3c067cd6d0c85360c096644d2d38585846040516102b5939291906106da565b60405180910390a250505050565b5f5482106102e457604051631dc0650160e31b815260040160405180910390fd5b5f5f83815481106102f7576102f7610711565b905f5260205f2090600502019050806003015442111561032a576040516356297c7d60e11b815260040160405180910390fd5b5f83815260016020908152604080832033845290915290205460ff161561036457604051637c9a1cf960e01b815260040160405180910390fd5b5f838152600160208181526040808420338552909152909120805460ff1916909117905581156103ad576001816001015f8282546103a29190610593565b909155506103c79050565b6001816002015f8282546103c19190610593565b90915550505b60408051831515815260016020820152339185917f7c2de587c00d75474a0c6c6fa96fd3b45dc974cd4e8a75f712bb84c950dce1b5910160405180910390a3505050565b5f6020828403121561041b575f5ffd5b5035919050565b60a081525f86518060a0840152806020890160c085015e5f60c0828501015260c0601f19601f83011684010191505085602083015284604083015283606083015282151560808301529695505050505050565b5f5f5f60408486031215610487575f5ffd5b833567ffffffffffffffff81111561049d575f5ffd5b8401601f810186136104ad575f5ffd5b803567ffffffffffffffff8111156104c3575f5ffd5b8660208284010111156104d4575f5ffd5b6020918201979096509401359392505050565b5f5f604083850312156104f8575f5ffd5b8235915060208301356001600160a01b0381168114610515575f5ffd5b809150509250929050565b5f5f60408385031215610531575f5ffd5b8235915060208301358015158114610515575f5ffd5b600181811c9082168061055b57607f821691505b60208210810361057957634e487b7160e01b5f52602260045260245ffd5b50919050565b634e487b7160e01b5f52601160045260245ffd5b808201808211156105a6576105a661057f565b92915050565b634e487b7160e01b5f52604160045260245ffd5b601f82111561060757805f5260205f20601f840160051c810160208510156105e55750805b601f840160051c820191505b81811015610604575f81556001016105f1565b50505b505050565b815167ffffffffffffffff811115610626576106266105ac565b61063a816106348454610547565b846105c0565b6020601f82116001811461066c575f83156106555750848201515b5f19600385901b1c1916600184901b178455610604565b5f84815260208120601f198516915b8281101561069b578785015182556020948501946001909201910161067b565b50848210156106b857868401515f19600387901b60f8161c191681555b50505050600190811b01905550565b818103818111156105a6576105a661057f565b60408152826040820152828460608301375f606084830101525f6060601f19601f8601168301019050826020830152949350505050565b634e487b7160e01b5f52603260045260245ffdfea264697066735822122061d638abab917d2cbb3c9e0a055e335d9737d3b152ccccffd9806b8402532b6364736f6c634300081c0033",
  "linkReferences": {},
  "deployedLinkReferences": {},
  "immutableReferences": {},
  "inputSourceName": "project/contracts/Day3_SimpleVotingDAO/SimpleVotingDAO.sol",
  "buildInfoId": "solc-0_8_28-356149d295d7ad0ef0441e9585b1e0758c796da2"
}